{
  "contractName": "Election",
  "abi": [
    {
      "constant": true,
      "inputs": [],
      "name": "candidatesCount",
      "outputs": [
        {
          "name": "",
          "type": "uint256"
        }
      ],
      "payable": false,
      "stateMutability": "view",
      "type": "function"
    },
    {
      "constant": true,
      "inputs": [
        {
          "name": "",
          "type": "uint256"
        }
      ],
      "name": "candidates",
      "outputs": [
        {
          "name": "id",
          "type": "uint256"
        },
        {
          "name": "CfirstName",
          "type": "string"
        },
        {
          "name": "ClastName",
          "type": "string"
        },
        {
          "name": "CidNumber",
          "type": "string"
        },
        {
          "name": "voteCount",
          "type": "uint256"
        }
      ],
      "payable": false,
      "stateMutability": "view",
      "type": "function"
    },
    {
      "constant": true,
      "inputs": [
        {
          "name": "",
          "type": "uint256"
        }
      ],
      "name": "users",
      "outputs": [
        {
          "name": "firstName",
          "type": "string"
        },
        {
          "name": "lastName",
          "type": "string"
        },
        {
          "name": "idNumber",
          "type": "string"
        },
        {
          "name": "email",
          "type": "string"
        },
        {
          "name": "password",
          "type": "string"
        },
        {
          "name": "add",
          "type": "address"
        }
      ],
      "payable": false,
      "stateMutability": "view",
      "type": "function"
    },
    {
      "constant": true,
      "inputs": [],
      "name": "manager",
      "outputs": [
        {
          "name": "",
          "type": "address"
        }
      ],
      "payable": false,
      "stateMutability": "view",
      "type": "function"
    },
    {
      "constant": true,
      "inputs": [],
      "name": "usersCount",
      "outputs": [
        {
          "name": "",
          "type": "uint256"
        }
      ],
      "payable": false,
      "stateMutability": "view",
      "type": "function"
    },
    {
      "constant": true,
      "inputs": [
        {
          "name": "",
          "type": "address"
        }
      ],
      "name": "voters",
      "outputs": [
        {
          "name": "",
          "type": "bool"
        }
      ],
      "payable": false,
      "stateMutability": "view",
      "type": "function"
    },
    {
      "inputs": [],
      "payable": false,
      "stateMutability": "nonpayable",
      "type": "constructor"
    },
    {
      "anonymous": false,
      "inputs": [
        {
          "indexed": true,
          "name": "candidateId",
          "type": "uint256"
        }
      ],
      "name": "votedEvent",
      "type": "event"
    },
    {
      "constant": false,
      "inputs": [
        {
          "name": "_CfirstName",
          "type": "string"
        },
        {
          "name": "_ClastName",
          "type": "string"
        },
        {
          "name": "_CidNumber",
          "type": "string"
        }
      ],
      "name": "addCandidate",
      "outputs": [],
      "payable": false,
      "stateMutability": "nonpayable",
      "type": "function"
    },
    {
      "constant": false,
      "inputs": [
        {
          "name": "_candidateId",
          "type": "uint256"
        }
      ],
      "name": "vote",
      "outputs": [],
      "payable": false,
      "stateMutability": "nonpayable",
      "type": "function"
    },
    {
      "constant": false,
      "inputs": [
        {
          "name": "_firstName",
          "type": "string"
        },
        {
          "name": "_lastName",
          "type": "string"
        },
        {
          "name": "_idNumber",
          "type": "string"
        },
        {
          "name": "_email",
          "type": "string"
        },
        {
          "name": "_password",
          "type": "string"
        }
      ],
      "name": "addUser",
      "outputs": [],
      "payable": false,
      "stateMutability": "nonpayable",
      "type": "function"
    }
  ],
  "bytecode": "0x608060405234801561001057600080fd5b50336000806101000a81548173ffffffffffffffffffffffffffffffffffffffff021916908373ffffffffffffffffffffffffffffffffffffffff160217905550611699806100606000396000f3fe608060405260043610610093576000357c0100000000000000000000000000000000000000000000000000000000900480630121b93f146100985780632d35a8a2146100d35780633477ee2e146100fe578063365b98b214610298578063481c6a751461052f5780636ba13a8214610586578063a3ec138d146105b1578063ad71f8dc1461061a578063b37a3d8214610810575b600080fd5b3480156100a457600080fd5b506100d1600480360360208110156100bb57600080fd5b8101908080359060200190929190505050610b34565b005b3480156100df57600080fd5b506100e8610d29565b6040518082815260200191505060405180910390f35b34801561010a57600080fd5b506101376004803603602081101561012157600080fd5b8101908080359060200190929190505050610d2f565b60405180868152602001806020018060200180602001858152602001848103845288818151815260200191508051906020019080838360005b8381101561018b578082015181840152602081019050610170565b50505050905090810190601f1680156101b85780820380516001836020036101000a031916815260200191505b50848103835287818151815260200191508051906020019080838360005b838110156101f15780820151818401526020810190506101d6565b50505050905090810190601f16801561021e5780820380516001836020036101000a031916815260200191505b50848103825286818151815260200191508051906020019080838360005b8381101561025757808201518184015260208101905061023c565b50505050905090810190601f1680156102845780820380516001836020036101000a031916815260200191505b509850505050505050505060405180910390f35b3480156102a457600080fd5b506102d1600480360360208110156102bb57600080fd5b8101908080359060200190929190505050610f2d565b6040518080602001806020018060200180602001806020018773ffffffffffffffffffffffffffffffffffffffff1673ffffffffffffffffffffffffffffffffffffffff16815260200186810386528c818151815260200191508051906020019080838360005b83811015610353578082015181840152602081019050610338565b50505050905090810190601f1680156103805780820380516001836020036101000a031916815260200191505b5086810385528b818151815260200191508051906020019080838360005b838110156103b957808201518184015260208101905061039e565b50505050905090810190601f1680156103e65780820380516001836020036101000a031916815260200191505b5086810384528a818151815260200191508051906020019080838360005b8381101561041f578082015181840152602081019050610404565b50505050905090810190601f16801561044c5780820380516001836020036101000a031916815260200191505b50868103835289818151815260200191508051906020019080838360005b8381101561048557808201518184015260208101905061046a565b50505050905090810190601f1680156104b25780820380516001836020036101000a031916815260200191505b50868103825288818151815260200191508051906020019080838360005b838110156104eb5780820151818401526020810190506104d0565b50505050905090810190601f1680156105185780820380516001836020036101000a031916815260200191505b509b50505050505050505050505060405180910390f35b34801561053b57600080fd5b50610544611281565b604051808273ffffffffffffffffffffffffffffffffffffffff1673ffffffffffffffffffffffffffffffffffffffff16815260200191505060405180910390f35b34801561059257600080fd5b5061059b6112a6565b6040518082815260200191505060405180910390f35b3480156105bd57600080fd5b50610600600480360360208110156105d457600080fd5b81019080803573ffffffffffffffffffffffffffffffffffffffff1690602001909291905050506112ac565b604051808215151515815260200191505060405180910390f35b34801561062657600080fd5b5061080e6004803603606081101561063d57600080fd5b810190808035906020019064010000000081111561065a57600080fd5b82018360208201111561066c57600080fd5b8035906020019184600183028401116401000000008311171561068e57600080fd5b91908080601f016020809104026020016040519081016040528093929190818152602001838380828437600081840152601f19601f820116905080830192505050505050509192919290803590602001906401000000008111156106f157600080fd5b82018360208201111561070357600080fd5b8035906020019184600183028401116401000000008311171561072557600080fd5b91908080601f016020809104026020016040519081016040528093929190818152602001838380828437600081840152601f19601f8201169050808301925050505050505091929192908035906020019064010000000081111561078857600080fd5b82018360208201111561079a57600080fd5b803590602001918460018302840111640100000000831117156107bc57600080fd5b91908080601f016020809104026020016040519081016040528093929190818152602001838380828437600081840152601f19601f8201169050808301925050505050505091929192905050506112cc565b005b34801561081c57600080fd5b50610b32600480360360a081101561083357600080fd5b810190808035906020019064010000000081111561085057600080fd5b82018360208201111561086257600080fd5b8035906020019184600183028401116401000000008311171561088457600080fd5b91908080601f016020809104026020016040519081016040528093929190818152602001838380828437600081840152601f19601f820116905080830192505050505050509192919290803590602001906401000000008111156108e757600080fd5b8201836020820111156108f957600080fd5b8035906020019184600183028401116401000000008311171561091b57600080fd5b91908080601f016020809104026020016040519081016040528093929190818152602001838380828437600081840152601f19601f8201169050808301925050505050505091929192908035906020019064010000000081111561097e57600080fd5b82018360208201111561099057600080fd5b803590602001918460018302840111640100000000831117156109b257600080fd5b91908080601f016020809104026020016040519081016040528093929190818152602001838380828437600081840152601f19601f82011690508083019250505050505050919291929080359060200190640100000000811115610a1557600080fd5b820183602082011115610a2757600080fd5b80359060200191846001830284011164010000000083111715610a4957600080fd5b91908080601f016020809104026020016040519081016040528093929190818152602001838380828437600081840152601f19601f82011690508083019250505050505050919291929080359060200190640100000000811115610aac57600080fd5b820183602082011115610abe57600080fd5b80359060200191846001830284011164010000000083111715610ae057600080fd5b91908080601f016020809104026020016040519081016040528093929190818152602001838380828437600081840152601f19601f82011690508083019250505050505050919291929050505061147b565b005b600160003373ffffffffffffffffffffffffffffffffffffffff1673ffffffffffffffffffffffffffffffffffffffff16815260200190815260200160002060009054906101000a900460ff16151515610bf6576040517f08c379a00000000000000000000000000000000000000000000000000000000081526004018080602001828103825260178152602001807f596f75206861766520616c726561647920766f7465642e00000000000000000081525060200191505060405180910390fd5b600081118015610c0857506003548111155b1515610c7c576040517f08c379a00000000000000000000000000000000000000000000000000000000081526004018080602001828103825260158152602001807f496e76616c69642063616e6469646174652049442e000000000000000000000081525060200191505060405180910390fd5b60018060003373ffffffffffffffffffffffffffffffffffffffff1673ffffffffffffffffffffffffffffffffffffffff16815260200190815260200160002060006101000a81548160ff0219169083151502179055506002600082815260200190815260200160002060040160008154809291906001019190505550807ffff3c900d938d21d0990d786e819f29b8d05c1ef587b462b939609625b684b1660405160405180910390a250565b60035481565b6002602052806000526040600020600091509050806000015490806001018054600181600116156101000203166002900480601f016020809104026020016040519081016040528092919081815260200182805460018160011615610100020316600290048015610de15780601f10610db657610100808354040283529160200191610de1565b820191906000526020600020905b815481529060010190602001808311610dc457829003601f168201915b505050505090806002018054600181600116156101000203166002900480601f016020809104026020016040519081016040528092919081815260200182805460018160011615610100020316600290048015610e7f5780601f10610e5457610100808354040283529160200191610e7f565b820191906000526020600020905b815481529060010190602001808311610e6257829003601f168201915b505050505090806003018054600181600116156101000203166002900480601f016020809104026020016040519081016040528092919081815260200182805460018160011615610100020316600290048015610f1d5780601f10610ef257610100808354040283529160200191610f1d565b820191906000526020600020905b815481529060010190602001808311610f0057829003601f168201915b5050505050908060040154905085565b6004602052806000526040600020600091509050806000018054600181600116156101000203166002900480601f016020809104026020016040519081016040528092919081815260200182805460018160011615610100020316600290048015610fd95780601f10610fae57610100808354040283529160200191610fd9565b820191906000526020600020905b815481529060010190602001808311610fbc57829003601f168201915b505050505090806001018054600181600116156101000203166002900480601f0160208091040260200160405190810160405280929190818152602001828054600181600116156101000203166002900480156110775780601f1061104c57610100808354040283529160200191611077565b820191906000526020600020905b81548152906001019060200180831161105a57829003601f168201915b505050505090806002018054600181600116156101000203166002900480601f0160208091040260200160405190810160405280929190818152602001828054600181600116156101000203166002900480156111155780601f106110ea57610100808354040283529160200191611115565b820191906000526020600020905b8154815290600101906020018083116110f857829003601f168201915b505050505090806003018054600181600116156101000203166002900480601f0160208091040260200160405190810160405280929190818152602001828054600181600116156101000203166002900480156111b35780601f10611188576101008083540402835291602001916111b3565b820191906000526020600020905b81548152906001019060200180831161119657829003601f168201915b505050505090806004018054600181600116156101000203166002900480601f0160208091040260200160405190810160405280929190818152602001828054600181600116156101000203166002900480156112515780601f1061122657610100808354040283529160200191611251565b820191906000526020600020905b81548152906001019060200180831161123457829003601f168201915b5050505050908060050160009054906101000a900473ffffffffffffffffffffffffffffffffffffffff16905086565b6000809054906101000a900473ffffffffffffffffffffffffffffffffffffffff1681565b60055481565b60016020528060005260406000206000915054906101000a900460ff1681565b6000809054906101000a900473ffffffffffffffffffffffffffffffffffffffff1673ffffffffffffffffffffffffffffffffffffffff163373ffffffffffffffffffffffffffffffffffffffff161415156113b6576040517f08c379a00000000000000000000000000000000000000000000000000000000081526004018080602001828103825260348152602001807f4163636573732064656e6965642e204f6e6c79206d616e616765722063616e2081526020017f706572666f726d207468697320616374696f6e2e00000000000000000000000081525060400191505060405180910390fd5b60036000815480929190600101919050555060a0604051908101604052806003548152602001848152602001838152602001828152602001600081525060026000600354815260200190815260200160002060008201518160000155602082015181600101908051906020019061142e9291906115c8565b50604082015181600201908051906020019061144b9291906115c8565b5060608201518160030190805190602001906114689291906115c8565b5060808201518160040155905050505050565b60056000815480929190600101919050555060c0604051908101604052808681526020018581526020018481526020018381526020018281526020013373ffffffffffffffffffffffffffffffffffffffff1681525060046000600554815260200190815260200160002060008201518160000190805190602001906115029291906115c8565b50602082015181600101908051906020019061151f9291906115c8565b50604082015181600201908051906020019061153c9291906115c8565b5060608201518160030190805190602001906115599291906115c8565b5060808201518160040190805190602001906115769291906115c8565b5060a08201518160050160006101000a81548173ffffffffffffffffffffffffffffffffffffffff021916908373ffffffffffffffffffffffffffffffffffffffff1602179055509050505050505050565b828054600181600116156101000203166002900490600052602060002090601f016020900481019282601f1061160957805160ff1916838001178555611637565b82800160010185558215611637579182015b8281111561163657825182559160200191906001019061161b565b5b5090506116449190611648565b5090565b61166a91905b8082111561166657600081600090555060010161164e565b5090565b9056fea165627a7a72305820dd5201f1128b26faf7091bda492a51382c11d27295e793cff1e7f436bb55f86a0029",
  "source": "//SPDX-License-Identifier: MIT\npragma solidity >=0.4.22 <0.9.0;\n\ncontract Election {\n\n    address public manager;\n\n    struct Candidate {\n        uint id;\n        string CfirstName;\n        string ClastName;\n        string CidNumber;\n        uint voteCount;\n    }\n\n    mapping (address => bool) public voters;\n\n    mapping (uint => Candidate) public candidates;\n\n    uint public candidatesCount;\n\n    event votedEvent (\n        uint indexed candidateId\n    );\n\n\n    constructor() public {\n        manager = msg.sender;\n    }\n\n    function addCandidate (string memory _CfirstName, string memory _ClastName, string memory _CidNumber) public restricted {\n        candidatesCount++;\n        candidates[candidatesCount] = Candidate(candidatesCount, _CfirstName, _ClastName, _CidNumber, 0);\n    }\n\n    modifier restricted () {\n        require(msg.sender == manager, \"Access denied. Only manager can perform this action.\");\n        _;\n    }\n\n\n    function vote (uint _candidateId) public {\n        require(!voters[msg.sender], \"You have already voted.\");\n\n        require(_candidateId > 0 && _candidateId <= candidatesCount, \"Invalid candidate ID.\");\n\n        voters[msg.sender] = true;\n\n        candidates[_candidateId].voteCount++;\n\n        // uint candidateId = _candidateId;\n\n        emit votedEvent(_candidateId);\n    }\n\n    // Users\n    // Register\n    struct User {\n        string firstName;\n        string lastName;\n        string idNumber;\n        string email;\n        string password;\n        address add;\n    }\n\n    mapping (uint => User) public users;\n\n    uint public usersCount;\n\n    function addUser (string memory _firstName, string memory _lastName, string memory _idNumber, string memory _email, string memory _password) public {\n        usersCount++;\n        users[usersCount] = User(_firstName, _lastName, _idNumber, _email, _password, msg.sender);\n    }\n\n}\n",
  "sourcePath": "C:\\voteZenith\\contracts\\Election.sol",
  "compiler": {
    "name": "solc",
    "version": "0.5.1+commit.c8a2cb62.Emscripten.clang"
  },
  "schemaVersion": "3.4.16",
  "updatedAt": "2024-04-08T06:40:24.705Z",
  "networkType": "ethereum",
  "devdoc": {
    "methods": {}
  },
  "userdoc": {
    "methods": {}
  }
}